{
  "abi": [
    {
      "inputs": [
        {
          "internalType": "contract IEntryPoint",
          "name": "anEntryPoint",
          "type": "address"
        }
      ],
      "stateMutability": "nonpayable",
      "type": "constructor"
    },
    {
      "inputs": [
        {
          "internalType": "address",
          "name": "smartAccount",
          "type": "address"
        }
      ],
      "name": "AlreadyInitialized",
      "type": "error"
    },
    {
      "inputs": [],
      "name": "BaseImplementationCannotBeZero",
      "type": "error"
    },
    {
      "inputs": [
        {
          "internalType": "address",
          "name": "caller",
          "type": "address"
        }
      ],
      "name": "CallerIsNotAnEntryPoint",
      "type": "error"
    },
    {
      "inputs": [
        {
          "internalType": "address",
          "name": "caller",
          "type": "address"
        }
      ],
      "name": "CallerIsNotEntryPointOrOwner",
      "type": "error"
    },
    {
      "inputs": [
        {
          "internalType": "address",
          "name": "caller",
          "type": "address"
        }
      ],
      "name": "CallerIsNotOwner",
      "type": "error"
    },
    {
      "inputs": [
        {
          "internalType": "address",
          "name": "caller",
          "type": "address"
        }
      ],
      "name": "CallerIsNotSelf",
      "type": "error"
    },
    {
      "inputs": [
        {
          "internalType": "uint256",
          "name": "targetTxGas",
          "type": "uint256"
        },
        {
          "internalType": "uint256",
          "name": "gasPrice",
          "type": "uint256"
        },
        {
          "internalType": "bool",
          "name": "success",
          "type": "bool"
        }
      ],
      "name": "CanNotEstimateGas",
      "type": "error"
    },
    {
      "inputs": [],
      "name": "DelegateCallsOnly",
      "type": "error"
    },
    {
      "inputs": [],
      "name": "EntryPointCannotBeZero",
      "type": "error"
    },
    {
      "inputs": [],
      "name": "ExecutionFailed",
      "type": "error"
    },
    {
      "inputs": [],
      "name": "HandlerCannotBeZero",
      "type": "error"
    },
    {
      "inputs": [
        {
          "internalType": "address",
          "name": "implementationAddress",
          "type": "address"
        }
      ],
      "name": "InvalidImplementation",
      "type": "error"
    },
    {
      "inputs": [
        {
          "internalType": "address",
          "name": "restoredSigner",
          "type": "address"
        },
        {
          "internalType": "address",
          "name": "expectedSigner",
          "type": "address"
        }
      ],
      "name": "InvalidSignature",
      "type": "error"
    },
    {
      "inputs": [
        {
          "internalType": "address",
          "name": "caller",
          "type": "address"
        }
      ],
      "name": "MixedAuthFail",
      "type": "error"
    },
    {
      "inputs": [
        {
          "internalType": "address",
          "name": "module",
          "type": "address"
        }
      ],
      "name": "ModuleAlreadyEnabled",
      "type": "error"
    },
    {
      "inputs": [
        {
          "internalType": "address",
          "name": "expectedModule",
          "type": "address"
        },
        {
          "internalType": "address",
          "name": "returnedModule",
          "type": "address"
        },
        {
          "internalType": "address",
          "name": "prevModule",
          "type": "address"
        }
      ],
      "name": "ModuleAndPrevModuleMismatch",
      "type": "error"
    },
    {
      "inputs": [
        {
          "internalType": "address",
          "name": "module",
          "type": "address"
        }
      ],
      "name": "ModuleCannotBeZeroOrSentinel",
      "type": "error"
    },
    {
      "inputs": [
        {
          "internalType": "address",
          "name": "module",
          "type": "address"
        }
      ],
      "name": "ModuleNotEnabled",
      "type": "error"
    },
    {
      "inputs": [],
      "name": "ModulesAlreadyInitialized",
      "type": "error"
    },
    {
      "inputs": [],
      "name": "ModulesSetupExecutionFailed",
      "type": "error"
    },
    {
      "inputs": [
        {
          "internalType": "uint256",
          "name": "gasLeft",
          "type": "uint256"
        },
        {
          "internalType": "uint256",
          "name": "gasRequired",
          "type": "uint256"
        }
      ],
      "name": "NotEnoughGasLeft",
      "type": "error"
    },
    {
      "inputs": [],
      "name": "OwnerCanNotBeSelf",
      "type": "error"
    },
    {
      "inputs": [],
      "name": "OwnerCannotBeZero",
      "type": "error"
    },
    {
      "inputs": [],
      "name": "OwnerProvidedIsSame",
      "type": "error"
    },
    {
      "inputs": [],
      "name": "ReentrancyProtectionActivated",
      "type": "error"
    },
    {
      "inputs": [],
      "name": "SignerCanNotBeSelf",
      "type": "error"
    },
    {
      "inputs": [],
      "name": "SignerCannotBeZero",
      "type": "error"
    },
    {
      "inputs": [],
      "name": "SignerProvidedExists",
      "type": "error"
    },
    {
      "inputs": [],
      "name": "TokenGasPriceFactorCanNotBeZero",
      "type": "error"
    },
    {
      "inputs": [
        {
          "internalType": "address",
          "name": "token",
          "type": "address"
        },
        {
          "internalType": "address",
          "name": "dest",
          "type": "address"
        },
        {
          "internalType": "uint256",
          "name": "amount",
          "type": "uint256"
        }
      ],
      "name": "TokenTransferFailed",
      "type": "error"
    },
    {
      "inputs": [],
      "name": "TransferToZeroAddressAttempt",
      "type": "error"
    },
    {
      "inputs": [
        {
          "internalType": "uint256",
          "name": "destLength",
          "type": "uint256"
        },
        {
          "internalType": "uint256",
          "name": "valueLength",
          "type": "uint256"
        },
        {
          "internalType": "uint256",
          "name": "funcLength",
          "type": "uint256"
        }
      ],
      "name": "WrongBatchProvided",
      "type": "error"
    },
    {
      "inputs": [
        {
          "internalType": "bytes",
          "name": "contractSignature",
          "type": "bytes"
        }
      ],
      "name": "WrongContractSignature",
      "type": "error"
    },
    {
      "inputs": [
        {
          "internalType": "uint256",
          "name": "uintS",
          "type": "uint256"
        },
        {
          "internalType": "uint256",
          "name": "contractSignatureLength",
          "type": "uint256"
        },
        {
          "internalType": "uint256",
          "name": "signatureLength",
          "type": "uint256"
        }
      ],
      "name": "WrongContractSignatureFormat",
      "type": "error"
    },
    {
      "anonymous": false,
      "inputs": [
        {
          "indexed": true,
          "internalType": "bytes32",
          "name": "txHash",
          "type": "bytes32"
        },
        {
          "indexed": true,
          "internalType": "uint256",
          "name": "payment",
          "type": "uint256"
        }
      ],
      "name": "AccountHandlePayment",
      "type": "event"
    },
    {
      "anonymous": false,
      "inputs": [
        {
          "indexed": true,
          "internalType": "address",
          "name": "previousHandler",
          "type": "address"
        },
        {
          "indexed": true,
          "internalType": "address",
          "name": "handler",
          "type": "address"
        }
      ],
      "name": "ChangedFallbackHandler",
      "type": "event"
    },
    {
      "anonymous": false,
      "inputs": [
        {
          "indexed": false,
          "internalType": "address",
          "name": "module",
          "type": "address"
        }
      ],
      "name": "DisabledModule",
      "type": "event"
    },
    {
      "anonymous": false,
      "inputs": [
        {
          "indexed": true,
          "internalType": "address",
          "name": "_scw",
          "type": "address"
        },
        {
          "indexed": true,
          "internalType": "address",
          "name": "_oldEOA",
          "type": "address"
        },
        {
          "indexed": true,
          "internalType": "address",
          "name": "_newEOA",
          "type": "address"
        }
      ],
      "name": "EOAChanged",
      "type": "event"
    },
    {
      "anonymous": false,
      "inputs": [
        {
          "indexed": false,
          "internalType": "address",
          "name": "module",
          "type": "address"
        }
      ],
      "name": "EnabledModule",
      "type": "event"
    },
    {
      "anonymous": false,
      "inputs": [
        {
          "indexed": true,
          "internalType": "address",
          "name": "to",
          "type": "address"
        },
        {
          "indexed": true,
          "internalType": "uint256",
          "name": "value",
          "type": "uint256"
        },
        {
          "indexed": true,
          "internalType": "bytes",
          "name": "data",
          "type": "bytes"
        },
        {
          "indexed": false,
          "internalType": "enum Enum.Operation",
          "name": "operation",
          "type": "uint8"
        },
        {
          "indexed": false,
          "internalType": "uint256",
          "name": "txGas",
          "type": "uint256"
        }
      ],
      "name": "ExecutionFailure",
      "type": "event"
    },
    {
      "anonymous": false,
      "inputs": [
        {
          "indexed": true,
          "internalType": "address",
          "name": "module",
          "type": "address"
        }
      ],
      "name": "ExecutionFromModuleFailure",
      "type": "event"
    },
    {
      "anonymous": false,
      "inputs": [
        {
          "indexed": true,
          "internalType": "address",
          "name": "module",
          "type": "address"
        }
      ],
      "name": "ExecutionFromModuleSuccess",
      "type": "event"
    },
    {
      "anonymous": false,
      "inputs": [
        {
          "indexed": true,
          "internalType": "address",
          "name": "to",
          "type": "address"
        },
        {
          "indexed": true,
          "internalType": "uint256",
          "name": "value",
          "type": "uint256"
        },
        {
          "indexed": true,
          "internalType": "bytes",
          "name": "data",
          "type": "bytes"
        },
        {
          "indexed": false,
          "internalType": "enum Enum.Operation",
          "name": "operation",
          "type": "uint8"
        },
        {
          "indexed": false,
          "internalType": "uint256",
          "name": "txGas",
          "type": "uint256"
        }
      ],
      "name": "ExecutionSuccess",
      "type": "event"
    },
    {
      "anonymous": false,
      "inputs": [
        {
          "indexed": true,
          "internalType": "address",
          "name": "oldImplementation",
          "type": "address"
        },
        {
          "indexed": true,
          "internalType": "address",
          "name": "newImplementation",
          "type": "address"
        }
      ],
      "name": "ImplementationUpdated",
      "type": "event"
    },
    {
      "anonymous": false,
      "inputs": [
        {
          "indexed": false,
          "internalType": "address",
          "name": "module",
          "type": "address"
        },
        {
          "indexed": false,
          "internalType": "address",
          "name": "to",
          "type": "address"
        },
        {
          "indexed": false,
          "internalType": "uint256",
          "name": "value",
          "type": "uint256"
        },
        {
          "indexed": false,
          "internalType": "bytes",
          "name": "data",
          "type": "bytes"
        },
        {
          "indexed": false,
          "internalType": "enum Enum.Operation",
          "name": "operation",
          "type": "uint8"
        }
      ],
      "name": "ModuleTransaction",
      "type": "event"
    },
    {
      "anonymous": false,
      "inputs": [
        {
          "indexed": true,
          "internalType": "address",
          "name": "signer",
          "type": "address"
        }
      ],
      "name": "SignerAdded",
      "type": "event"
    },
    {
      "anonymous": false,
      "inputs": [
        {
          "indexed": true,
          "internalType": "address",
          "name": "signer",
          "type": "address"
        }
      ],
      "name": "SignerRemoved",
      "type": "event"
    },
    {
      "anonymous": false,
      "inputs": [
        {
          "indexed": true,
          "internalType": "address",
          "name": "sender",
          "type": "address"
        },
        {
          "indexed": true,
          "internalType": "uint256",
          "name": "value",
          "type": "uint256"
        }
      ],
      "name": "SmartAccountReceivedNativeToken",
      "type": "event"
    },
    {
      "stateMutability": "nonpayable",
      "type": "fallback"
    },
    {
      "inputs": [],
      "name": "VERSION",
      "outputs": [
        {
          "internalType": "string",
          "name": "",
          "type": "string"
        }
      ],
      "stateMutability": "view",
      "type": "function"
    },
    {
      "inputs": [],
      "name": "addDeposit",
      "outputs": [],
      "stateMutability": "payable",
      "type": "function"
    },
    {
      "inputs": [
        {
          "internalType": "address",
          "name": "_newSigner",
          "type": "address"
        }
      ],
      "name": "addSigners",
      "outputs": [],
      "stateMutability": "nonpayable",
      "type": "function"
    },
    {
      "inputs": [
        {
          "internalType": "address",
          "name": "",
          "type": "address"
        }
      ],
      "name": "authedSigners",
      "outputs": [
        {
          "internalType": "uint256",
          "name": "",
          "type": "uint256"
        }
      ],
      "stateMutability": "view",
      "type": "function"
    },
    {
      "inputs": [
        {
          "internalType": "bytes32",
          "name": "dataHash",
          "type": "bytes32"
        },
        {
          "internalType": "bytes",
          "name": "signatures",
          "type": "bytes"
        }
      ],
      "name": "checkSignatures",
      "outputs": [],
      "stateMutability": "view",
      "type": "function"
    },
    {
      "inputs": [
        {
          "internalType": "address",
          "name": "prevModule",
          "type": "address"
        },
        {
          "internalType": "address",
          "name": "module",
          "type": "address"
        }
      ],
      "name": "disableModule",
      "outputs": [],
      "stateMutability": "nonpayable",
      "type": "function"
    },
    {
      "inputs": [],
      "name": "domainSeparator",
      "outputs": [
        {
          "internalType": "bytes32",
          "name": "",
          "type": "bytes32"
        }
      ],
      "stateMutability": "view",
      "type": "function"
    },
    {
      "inputs": [
        {
          "internalType": "address",
          "name": "module",
          "type": "address"
        }
      ],
      "name": "enableModule",
      "outputs": [],
      "stateMutability": "nonpayable",
      "type": "function"
    },
    {
      "inputs": [
        {
          "components": [
            {
              "internalType": "address",
              "name": "to",
              "type": "address"
            },
            {
              "internalType": "enum Enum.Operation",
              "name": "operation",
              "type": "uint8"
            },
            {
              "internalType": "uint256",
              "name": "value",
              "type": "uint256"
            },
            {
              "internalType": "bytes",
              "name": "data",
              "type": "bytes"
            },
            {
              "internalType": "uint256",
              "name": "targetTxGas",
              "type": "uint256"
            }
          ],
          "internalType": "struct Transaction",
          "name": "_tx",
          "type": "tuple"
        },
        {
          "components": [
            {
              "internalType": "uint256",
              "name": "baseGas",
              "type": "uint256"
            },
            {
              "internalType": "uint256",
              "name": "gasPrice",
              "type": "uint256"
            },
            {
              "internalType": "uint256",
              "name": "tokenGasPriceFactor",
              "type": "uint256"
            },
            {
              "internalType": "address",
              "name": "gasToken",
              "type": "address"
            },
            {
              "internalType": "address payable",
              "name": "refundReceiver",
              "type": "address"
            }
          ],
          "internalType": "struct FeeRefund",
          "name": "refundInfo",
          "type": "tuple"
        },
        {
          "internalType": "uint256",
          "name": "_nonce",
          "type": "uint256"
        }
      ],
      "name": "encodeTransactionData",
      "outputs": [
        {
          "internalType": "bytes",
          "name": "",
          "type": "bytes"
        }
      ],
      "stateMutability": "view",
      "type": "function"
    },
    {
      "inputs": [],
      "name": "entryPoint",
      "outputs": [
        {
          "internalType": "contract IEntryPoint",
          "name": "",
          "type": "address"
        }
      ],
      "stateMutability": "view",
      "type": "function"
    },
    {
      "inputs": [
        {
          "components": [
            {
              "internalType": "address",
              "name": "to",
              "type": "address"
            },
            {
              "internalType": "enum Enum.Operation",
              "name": "operation",
              "type": "uint8"
            },
            {
              "internalType": "uint256",
              "name": "value",
              "type": "uint256"
            },
            {
              "internalType": "bytes",
              "name": "data",
              "type": "bytes"
            },
            {
              "internalType": "uint256",
              "name": "targetTxGas",
              "type": "uint256"
            }
          ],
          "internalType": "struct Transaction",
          "name": "_tx",
          "type": "tuple"
        },
        {
          "components": [
            {
              "internalType": "uint256",
              "name": "baseGas",
              "type": "uint256"
            },
            {
              "internalType": "uint256",
              "name": "gasPrice",
              "type": "uint256"
            },
            {
              "internalType": "uint256",
              "name": "tokenGasPriceFactor",
              "type": "uint256"
            },
            {
              "internalType": "address",
              "name": "gasToken",
              "type": "address"
            },
            {
              "internalType": "address payable",
              "name": "refundReceiver",
              "type": "address"
            }
          ],
          "internalType": "struct FeeRefund",
          "name": "refundInfo",
          "type": "tuple"
        },
        {
          "internalType": "bytes",
          "name": "signatures",
          "type": "bytes"
        }
      ],
      "name": "execTransaction",
      "outputs": [
        {
          "internalType": "bool",
          "name": "",
          "type": "bool"
        }
      ],
      "stateMutability": "payable",
      "type": "function"
    },
    {
      "inputs": [
        {
          "internalType": "address",
          "name": "to",
          "type": "address"
        },
        {
          "internalType": "uint256",
          "name": "value",
          "type": "uint256"
        },
        {
          "internalType": "bytes",
          "name": "data",
          "type": "bytes"
        },
        {
          "internalType": "enum Enum.Operation",
          "name": "operation",
          "type": "uint8"
        }
      ],
      "name": "execTransactionFromModule",
      "outputs": [
        {
          "internalType": "bool",
          "name": "success",
          "type": "bool"
        }
      ],
      "stateMutability": "nonpayable",
      "type": "function"
    },
    {
      "inputs": [
        {
          "internalType": "address",
          "name": "to",
          "type": "address"
        },
        {
          "internalType": "uint256",
          "name": "value",
          "type": "uint256"
        },
        {
          "internalType": "bytes",
          "name": "data",
          "type": "bytes"
        },
        {
          "internalType": "enum Enum.Operation",
          "name": "operation",
          "type": "uint8"
        }
      ],
      "name": "execTransactionFromModuleReturnData",
      "outputs": [
        {
          "internalType": "bool",
          "name": "success",
          "type": "bool"
        },
        {
          "internalType": "bytes",
          "name": "returnData",
          "type": "bytes"
        }
      ],
      "stateMutability": "nonpayable",
      "type": "function"
    },
    {
      "inputs": [
        {
          "components": [
            {
              "internalType": "address",
              "name": "to",
              "type": "address"
            },
            {
              "internalType": "enum Enum.Operation",
              "name": "operation",
              "type": "uint8"
            },
            {
              "internalType": "uint256",
              "name": "value",
              "type": "uint256"
            },
            {
              "internalType": "bytes",
              "name": "data",
              "type": "bytes"
            },
            {
              "internalType": "uint256",
              "name": "targetTxGas",
              "type": "uint256"
            }
          ],
          "internalType": "struct Transaction",
          "name": "_tx",
          "type": "tuple"
        },
        {
          "components": [
            {
              "internalType": "uint256",
              "name": "baseGas",
              "type": "uint256"
            },
            {
              "internalType": "uint256",
              "name": "gasPrice",
              "type": "uint256"
            },
            {
              "internalType": "uint256",
              "name": "tokenGasPriceFactor",
              "type": "uint256"
            },
            {
              "internalType": "address",
              "name": "gasToken",
              "type": "address"
            },
            {
              "internalType": "address payable",
              "name": "refundReceiver",
              "type": "address"
            }
          ],
          "internalType": "struct FeeRefund",
          "name": "refundInfo",
          "type": "tuple"
        },
        {
          "internalType": "bytes",
          "name": "signatures",
          "type": "bytes"
        }
      ],
      "name": "execTransaction_S6W",
      "outputs": [
        {
          "internalType": "bool",
          "name": "success",
          "type": "bool"
        }
      ],
      "stateMutability": "payable",
      "type": "function"
    },
    {
      "inputs": [
        {
          "internalType": "address[]",
          "name": "dest",
          "type": "address[]"
        },
        {
          "internalType": "uint256[]",
          "name": "value",
          "type": "uint256[]"
        },
        {
          "internalType": "bytes[]",
          "name": "func",
          "type": "bytes[]"
        }
      ],
      "name": "executeBatchCall",
      "outputs": [],
      "stateMutability": "nonpayable",
      "type": "function"
    },
    {
      "inputs": [
        {
          "internalType": "address[]",
          "name": "dest",
          "type": "address[]"
        },
        {
          "internalType": "uint256[]",
          "name": "value",
          "type": "uint256[]"
        },
        {
          "internalType": "bytes[]",
          "name": "func",
          "type": "bytes[]"
        }
      ],
      "name": "executeBatchCall_4by",
      "outputs": [],
      "stateMutability": "nonpayable",
      "type": "function"
    },
    {
      "inputs": [
        {
          "internalType": "address",
          "name": "dest",
          "type": "address"
        },
        {
          "internalType": "uint256",
          "name": "value",
          "type": "uint256"
        },
        {
          "internalType": "bytes",
          "name": "func",
          "type": "bytes"
        }
      ],
      "name": "executeCall",
      "outputs": [],
      "stateMutability": "nonpayable",
      "type": "function"
    },
    {
      "inputs": [
        {
          "internalType": "address",
          "name": "dest",
          "type": "address"
        },
        {
          "internalType": "uint256",
          "name": "value",
          "type": "uint256"
        },
        {
          "internalType": "bytes",
          "name": "func",
          "type": "bytes"
        }
      ],
      "name": "executeCall_s1m",
      "outputs": [],
      "stateMutability": "nonpayable",
      "type": "function"
    },
    {
      "inputs": [],
      "name": "getChainId",
      "outputs": [
        {
          "internalType": "uint256",
          "name": "",
          "type": "uint256"
        }
      ],
      "stateMutability": "view",
      "type": "function"
    },
    {
      "inputs": [],
      "name": "getDeposit",
      "outputs": [
        {
          "internalType": "uint256",
          "name": "",
          "type": "uint256"
        }
      ],
      "stateMutability": "view",
      "type": "function"
    },
    {
      "inputs": [],
      "name": "getFallbackHandler",
      "outputs": [
        {
          "internalType": "address",
          "name": "_handler",
          "type": "address"
        }
      ],
      "stateMutability": "view",
      "type": "function"
    },
    {
      "inputs": [],
      "name": "getImplementation",
      "outputs": [
        {
          "internalType": "address",
          "name": "_implementation",
          "type": "address"
        }
      ],
      "stateMutability": "view",
      "type": "function"
    },
    {
      "inputs": [
        {
          "internalType": "address",
          "name": "start",
          "type": "address"
        },
        {
          "internalType": "uint256",
          "name": "pageSize",
          "type": "uint256"
        }
      ],
      "name": "getModulesPaginated",
      "outputs": [
        {
          "internalType": "address[]",
          "name": "array",
          "type": "address[]"
        },
        {
          "internalType": "address",
          "name": "next",
          "type": "address"
        }
      ],
      "stateMutability": "view",
      "type": "function"
    },
    {
      "inputs": [
        {
          "internalType": "uint256",
          "name": "batchId",
          "type": "uint256"
        }
      ],
      "name": "getNonce",
      "outputs": [
        {
          "internalType": "uint256",
          "name": "",
          "type": "uint256"
        }
      ],
      "stateMutability": "view",
      "type": "function"
    },
    {
      "inputs": [
        {
          "internalType": "address",
          "name": "to",
          "type": "address"
        },
        {
          "internalType": "uint256",
          "name": "value",
          "type": "uint256"
        },
        {
          "internalType": "bytes",
          "name": "data",
          "type": "bytes"
        },
        {
          "internalType": "enum Enum.Operation",
          "name": "operation",
          "type": "uint8"
        },
        {
          "internalType": "uint256",
          "name": "targetTxGas",
          "type": "uint256"
        },
        {
          "internalType": "uint256",
          "name": "baseGas",
          "type": "uint256"
        },
        {
          "internalType": "uint256",
          "name": "gasPrice",
          "type": "uint256"
        },
        {
          "internalType": "uint256",
          "name": "tokenGasPriceFactor",
          "type": "uint256"
        },
        {
          "internalType": "address",
          "name": "gasToken",
          "type": "address"
        },
        {
          "internalType": "address payable",
          "name": "refundReceiver",
          "type": "address"
        },
        {
          "internalType": "uint256",
          "name": "_nonce",
          "type": "uint256"
        }
      ],
      "name": "getTransactionHash",
      "outputs": [
        {
          "internalType": "bytes32",
          "name": "",
          "type": "bytes32"
        }
      ],
      "stateMutability": "view",
      "type": "function"
    },
    {
      "inputs": [
        {
          "internalType": "uint256",
          "name": "gasUsed",
          "type": "uint256"
        },
        {
          "internalType": "uint256",
          "name": "baseGas",
          "type": "uint256"
        },
        {
          "internalType": "uint256",
          "name": "gasPrice",
          "type": "uint256"
        },
        {
          "internalType": "uint256",
          "name": "tokenGasPriceFactor",
          "type": "uint256"
        },
        {
          "internalType": "address",
          "name": "gasToken",
          "type": "address"
        },
        {
          "internalType": "address payable",
          "name": "refundReceiver",
          "type": "address"
        }
      ],
      "name": "handlePaymentRevert",
      "outputs": [
        {
          "internalType": "uint256",
          "name": "requiredGas",
          "type": "uint256"
        }
      ],
      "stateMutability": "nonpayable",
      "type": "function"
    },
    {
      "inputs": [
        {
          "internalType": "address",
          "name": "_owner",
          "type": "address"
        },
        {
          "internalType": "address",
          "name": "_handler",
          "type": "address"
        }
      ],
      "name": "init",
      "outputs": [],
      "stateMutability": "nonpayable",
      "type": "function"
    },
    {
      "inputs": [
        {
          "internalType": "address",
          "name": "module",
          "type": "address"
        }
      ],
      "name": "isModuleEnabled",
      "outputs": [
        {
          "internalType": "bool",
          "name": "",
          "type": "bool"
        }
      ],
      "stateMutability": "view",
      "type": "function"
    },
    {
      "inputs": [
        {
          "internalType": "bytes32",
          "name": "_dataHash",
          "type": "bytes32"
        },
        {
          "internalType": "bytes",
          "name": "_signature",
          "type": "bytes"
        }
      ],
      "name": "isValidSignature",
      "outputs": [
        {
          "internalType": "bytes4",
          "name": "",
          "type": "bytes4"
        }
      ],
      "stateMutability": "view",
      "type": "function"
    },
    {
      "inputs": [],
      "name": "nonce",
      "outputs": [
        {
          "internalType": "uint256",
          "name": "",
          "type": "uint256"
        }
      ],
      "stateMutability": "view",
      "type": "function"
    },
    {
      "inputs": [
        {
          "internalType": "uint256",
          "name": "",
          "type": "uint256"
        }
      ],
      "name": "nonces",
      "outputs": [
        {
          "internalType": "uint256",
          "name": "",
          "type": "uint256"
        }
      ],
      "stateMutability": "view",
      "type": "function"
    },
    {
      "inputs": [],
      "name": "owner",
      "outputs": [
        {
          "internalType": "address",
          "name": "",
          "type": "address"
        }
      ],
      "stateMutability": "view",
      "type": "function"
    },
    {
      "inputs": [
        {
          "internalType": "address",
          "name": "token",
          "type": "address"
        },
        {
          "internalType": "address",
          "name": "dest",
          "type": "address"
        },
        {
          "internalType": "uint256",
          "name": "amount",
          "type": "uint256"
        }
      ],
      "name": "pullTokens",
      "outputs": [],
      "stateMutability": "nonpayable",
      "type": "function"
    },
    {
      "inputs": [
        {
          "internalType": "address",
          "name": "_signer",
          "type": "address"
        }
      ],
      "name": "removeSigners",
      "outputs": [],
      "stateMutability": "nonpayable",
      "type": "function"
    },
    {
      "inputs": [
        {
          "internalType": "address",
          "name": "to",
          "type": "address"
        },
        {
          "internalType": "uint256",
          "name": "value",
          "type": "uint256"
        },
        {
          "internalType": "bytes",
          "name": "data",
          "type": "bytes"
        },
        {
          "internalType": "enum Enum.Operation",
          "name": "operation",
          "type": "uint8"
        }
      ],
      "name": "requiredTxGas",
      "outputs": [
        {
          "internalType": "uint256",
          "name": "",
          "type": "uint256"
        }
      ],
      "stateMutability": "nonpayable",
      "type": "function"
    },
    {
      "inputs": [
        {
          "internalType": "address",
          "name": "handler",
          "type": "address"
        }
      ],
      "name": "setFallbackHandler",
      "outputs": [],
      "stateMutability": "nonpayable",
      "type": "function"
    },
    {
      "inputs": [
        {
          "internalType": "address",
          "name": "_newOwner",
          "type": "address"
        }
      ],
      "name": "setOwner",
      "outputs": [],
      "stateMutability": "nonpayable",
      "type": "function"
    },
    {
      "inputs": [
        {
          "internalType": "bytes4",
          "name": "_interfaceId",
          "type": "bytes4"
        }
      ],
      "name": "supportsInterface",
      "outputs": [
        {
          "internalType": "bool",
          "name": "",
          "type": "bool"
        }
      ],
      "stateMutability": "view",
      "type": "function"
    },
    {
      "inputs": [
        {
          "internalType": "address payable",
          "name": "dest",
          "type": "address"
        },
        {
          "internalType": "uint256",
          "name": "amount",
          "type": "uint256"
        }
      ],
      "name": "transfer",
      "outputs": [],
      "stateMutability": "nonpayable",
      "type": "function"
    },
    {
      "inputs": [
        {
          "internalType": "address",
          "name": "_implementation",
          "type": "address"
        }
      ],
      "name": "updateImplementation",
      "outputs": [],
      "stateMutability": "nonpayable",
      "type": "function"
    },
    {
      "inputs": [
        {
          "components": [
            {
              "internalType": "address",
              "name": "sender",
              "type": "address"
            },
            {
              "internalType": "uint256",
              "name": "nonce",
              "type": "uint256"
            },
            {
              "internalType": "bytes",
              "name": "initCode",
              "type": "bytes"
            },
            {
              "internalType": "bytes",
              "name": "callData",
              "type": "bytes"
            },
            {
              "internalType": "uint256",
              "name": "callGasLimit",
              "type": "uint256"
            },
            {
              "internalType": "uint256",
              "name": "verificationGasLimit",
              "type": "uint256"
            },
            {
              "internalType": "uint256",
              "name": "preVerificationGas",
              "type": "uint256"
            },
            {
              "internalType": "uint256",
              "name": "maxFeePerGas",
              "type": "uint256"
            },
            {
              "internalType": "uint256",
              "name": "maxPriorityFeePerGas",
              "type": "uint256"
            },
            {
              "internalType": "bytes",
              "name": "paymasterAndData",
              "type": "bytes"
            },
            {
              "internalType": "bytes",
              "name": "signature",
              "type": "bytes"
            }
          ],
          "internalType": "struct UserOperation",
          "name": "userOp",
          "type": "tuple"
        },
        {
          "internalType": "bytes32",
          "name": "userOpHash",
          "type": "bytes32"
        },
        {
          "internalType": "uint256",
          "name": "missingAccountFunds",
          "type": "uint256"
        }
      ],
      "name": "validateUserOp",
      "outputs": [
        {
          "internalType": "uint256",
          "name": "validationData",
          "type": "uint256"
        }
      ],
      "stateMutability": "nonpayable",
      "type": "function"
    },
    {
      "inputs": [
        {
          "internalType": "address payable",
          "name": "withdrawAddress",
          "type": "address"
        },
        {
          "internalType": "uint256",
          "name": "amount",
          "type": "uint256"
        }
      ],
      "name": "withdrawDepositTo",
      "outputs": [],
      "stateMutability": "payable",
      "type": "function"
    },
    {
      "stateMutability": "payable",
      "type": "receive"
    }
  ],
  "bytecode": {
    "object": "0x60e06040523480156200001157600080fd5b5060405162003af438038062003af48339810160408190526200003491620000a1565b60016031553060c052603280546001600160a01b03191673eeeeeeeeeeeeeeeeeeeeeeeeeeeeeeeeeeeeeeee1790556001600160a01b0381166200008b5760405163091748f960e21b815260040160405180910390fd5b6001600160a01b03166080524660a052620000d3565b600060208284031215620000b457600080fd5b81516001600160a01b0381168114620000cc57600080fd5b9392505050565b60805160a05160c0516139c76200012d6000396000610260015260006104ac01526000818161073401528181610e1701528181610f7401528181611021015281816118c50152818161195601526120ca01526139c76000f3fe6080604052600436106102515760003560e01c8063912ccaa311610139578063c399ec88116100b6578063ed516d511161007a578063ed516d5114610828578063f08a032314610848578063f09a401614610868578063f698da2514610888578063fc7d3d791461089d578063ffa1ad74146108b0576102cd565b8063c399ec8814610785578063c4ca3a9c1461079a578063cc2f8452146107ba578063e009cfde146107e8578063e460a30c14610808576102cd565b8063abc1b745116100fd578063abc1b745146106d0578063ac85dca7146106f0578063affed0e014610710578063b0d691fe14610725578063b40d83d014610758576102cd565b8063912ccaa31461063c5780639e5d4c491461065c578063a18f51e51461067c578063a9059cbb1461069c578063aaf10f42146106bc576102cd565b80633a871cdd116101d25780635229073f116101965780635229073f146105585780635c0ba29914610586578063610b5925146105b35780637455ce3c146105d3578063856dfd99146105e65780638da5cb5b1461061c576102cd565b80633a871cdd146104d05780633d46b819146104f0578063468721a71461051d5780634a58db191461053d5780634d44560d14610545576102cd565b8063141a468c11610219578063141a468c146103e95780631626ba7e146104245780632d9ad53d1461045d578063325c8d581461047d5780633408e4701461049d576102cd565b80610772146103215780618f2d1461034357806301ffc9a714610363578063025b22bc146103a957806313af4035146103c9576102cd565b366102cd576001600160a01b037f000000000000000000000000000000000000000000000000000000000000000016300361029f57604051633c97166560e21b815260040160405180910390fd5b604051349033907ed05ab44e279ac59e855cb75dc2ae23b200ad994797b6f1f028f96a46ecce0290600090a3005b3480156102d957600080fd5b506000805160206139728339815191528054806102f257005b36600080373360601b365260008060143601600080855af190503d6000803e8061031b573d6000fd5b503d6000f35b34801561032d57600080fd5b5061034161033c366004612c5d565b6108e1565b005b34801561034f57600080fd5b5061034161035e366004612cfc565b610930565b34801561036f57600080fd5b5061039461037e366004612dab565b6001600160e01b0319166301ffc9a760e01b1490565b60405190151581526020015b60405180910390f35b3480156103b557600080fd5b506103416103c4366004612dc8565b610a41565b3480156103d557600080fd5b506103416103e4366004612dc8565b610b42565b3480156103f557600080fd5b50610416610404366004612de5565b60336020526000908152604090205481565b6040519081526020016103a0565b34801561043057600080fd5b5061044461043f366004612ec8565b610c44565b6040516001600160e01b031990911681526020016103a0565b34801561046957600080fd5b50610394610478366004612dc8565b610d11565b34801561048957600080fd5b50610341610498366004612dc8565b610d49565b3480156104a957600080fd5b507f0000000000000000000000000000000000000000000000000000000000000000610416565b3480156104dc57600080fd5b506104166104eb366004612f0e565b610e0a565b3480156104fc57600080fd5b5061041661050b366004612de5565b60009081526033602052604090205490565b34801561052957600080fd5b50610394610538366004612f70565b610e73565b610341610f72565b610341610553366004612fd9565b610ff2565b34801561056457600080fd5b50610578610573366004612f70565b6110a8565b6040516103a0929190613055565b34801561059257600080fd5b506105a66105a136600461314f565b6110de565b6040516103a091906131a6565b3480156105bf57600080fd5b506103416105ce366004612dc8565b6111cc565b6103946105e13660046131b9565b6112f2565b3480156105f257600080fd5b50600080516020613972833981519152545b6040516001600160a01b0390911681526020016103a0565b34801561062857600080fd5b50603254610604906001600160a01b031681565b34801561064857600080fd5b50610341610657366004612cfc565b611530565b34801561066857600080fd5b50610341610677366004612c5d565b61153e565b34801561068857600080fd5b5061041661069736600461322d565b61154a565b3480156106a857600080fd5b506103416106b7366004612fd9565b6116bd565b3480156106c857600080fd5b503054610604565b3480156106dc57600080fd5b506104166106eb36600461328b565b611749565b3480156106fc57600080fd5b5061034161070b366004613352565b61181c565b34801561071c57600080fd5b5061041661189e565b34801561073157600080fd5b507f0000000000000000000000000000000000000000000000000000000000000000610604565b34801561076457600080fd5b50610416610773366004612dc8565b60346020526000908152604090205481565b34801561079157600080fd5b50610416611936565b3480156107a657600080fd5b506104166107b5366004613393565b611985565b3480156107c657600080fd5b506107da6107d5366004612fd9565b6119fe565b6040516103a0929190613403565b3480156107f457600080fd5b50610341610803366004613460565b611af6565b34801561081457600080fd5b50610341610823366004612dc8565b611c28565b34801561083457600080fd5b50610341610843366004612ec8565b611d23565b34801561085457600080fd5b50610341610863366004612dc8565b611f5f565b34801561087457600080fd5b50610341610883366004613460565b611fc4565b34801561089457600080fd5b50610416612059565b6103946108ab3660046131b9565b6120b2565b3480156108bc57600080fd5b506105a6604051806040016040528060058152602001640312e302e360dc1b81525081565b6108e96120bf565b61092a848484848080601f01602080910402602001604051908101604052809392919081815260200183838082843760009201919091525061212592505050565b50505050565b6109386120bf565b8415806109455750848314155b806109505750828114155b1561098457604051630a0c0a9160e31b81526004810186905260248101849052604481018290526064015b60405180910390fd5b60005b85811015610a3857610a308787838181106109a4576109a4613499565b90506020020160208101906109b99190612dc8565b8686848181106109cb576109cb613499565b905060200201358585858181106109e4576109e4613499565b90506020028101906109f691906134af565b8080601f01602080910402602001604051908101604052809392919081815260200183838082843760009201919091525061212592505050565b600101610987565b50505050505050565b6032546001600160a01b03163314801590610a5c5750333014155b15610a7c576040516308a0b0a560e11b815233600482015260240161097b565b6001600160a01b038116610acb5760405162461bcd60e51b8152602060048201526016602482015275416464726573732063616e6e6f74206265207a65726f60501b604482015260640161097b565b6001600160a01b0381163b610afe57604051630c76093760e01b81526001600160a01b038216600482015260240161097b565b308054908290556040516001600160a01b0380841691908316907faa3f731066a578e5f39b4215468d826cdd15373cbc0dfc9cb9bdc649718ef7da90600090a35050565b6032546001600160a01b03163314801590610b5d5750333014155b15610b7d576040516308a0b0a560e11b815233600482015260240161097b565b6001600160a01b038116610ba457604051639b15e16f60e01b815260040160405180910390fd5b306001600160a01b03821603610bcd576040516375b4d24760e01b815260040160405180910390fd5b6032546001600160a01b0390811690821603610bfc57604051638a95d3fb60e01b815260040160405180910390fd5b60328054908290556040516001600160a01b0391821691831690829030907ff2c2b1b5312b1e31ad49a7d85acd6322ae6facc51488810b882ecdb4df861cd490600090a45050565b6032546000906001600160a01b03163b15610cd357603254604051630b135d3f60e11b81526001600160a01b0390911690631626ba7e90610c8b90869086906004016134f5565b602060405180830381865afa158015610ca8573d6000803e3d6000fd5b505050506040513d601f19601f82011682018060405250810190610ccc919061350e565b9050610d0b565b610cdd8383612143565b6032546001600160a01b03918216911603610d005750630b135d3f60e11b610d0b565b506001600160e01b03195b92915050565b600060016001600160a01b03831614801590610d0b5750506001600160a01b0390811660009081526020819052604090205416151590565b6032546001600160a01b03163314610d765760405163d4ed9a1760e01b815233600482015260240161097b565b6001600160a01b038116610d9d57604051633d9d06fb60e11b815260040160405180910390fd5b306001600160a01b03821603610dc657604051631e238de360e21b815260040160405180910390fd5b6001600160a01b038116600081815260346020526040808220829055517f3525e22824a8a7df2c9a6029941c824cf95b6447f1e13d5128fd3826d35afe8b9190a250565b6000336001600160a01b037f00000000000000000000000000000000000000000000000000000000000000001614610e5757604051635dac3db760e11b815233600482015260240161097b565b610e618484612167565b9050610e6c8261230a565b9392505050565b60003360011480610e9a5750336000908152602081905260409020546001600160a01b0316155b15610eba576040516321ac7c5f60e01b815233600482015260240161097b565b610ec7858585855a612355565b90508015610f3e577f8c014e41cffd68ba64f3e7830b8b2e4ee860509d8deab25ebbcbba2f0405e2da3386868686604051610f06959493929190613563565b60405180910390a160405133907f6895c13664aa4f67288b25d7a21d7aaa34916e355fb9b6fae0a139a9085becb890600090a2610f6a565b60405133907facd2c8702804128fdb0db2bb49f6d127dd0181c13fd45dbfe16de0930e2bd37590600090a25b949350505050565b7f000000000000000000000000000000000000000000000000000000000000000060405163b760faf960e01b81523060048201526001600160a01b03919091169063b760faf99034906024016000604051808303818588803b158015610fd757600080fd5b505af1158015610feb573d6000803e3d6000fd5b5050505050565b6032546001600160a01b0316331461101f5760405163d4ed9a1760e01b815233600482015260240161097b565b7f000000000000000000000000000000000000000000000000000000000000000060405163040b850f60e31b81526001600160a01b03848116600483015260248201849052919091169063205c287890604401600060405180830381600087803b15801561108c57600080fd5b505af11580156110a0573d6000803e3d6000fd5b505050505050565b600060606110b886868686610e73565b915060405160203d0181016040523d81523d6000602083013e8091505094509492505050565b606060007fda033865d68bf4a40a5a7cb4159a99e33dba8569e65ea3e38222eb12d9e66eee60001b856000015186604001518760600151805190602001208860200151896080015189600001518a602001518b604001518c606001518d608001518d60405160200161115b9c9b9a999897969594939291906135af565b60408051601f1981840301815291905280516020909101209050601960f81b600160f81b611187612059565b6040516001600160f81b031993841660208201529290911660218301526022820152604281018290526062016040516020818303038152906040529150509392505050565b6111d461245c565b6001600160a01b03811615806111f357506001600160a01b0381166001145b1561121c5760405163cadb248f60e01b81526001600160a01b038216600482015260240161097b565b6001600160a01b0381811660009081526020819052604090205416156112605760405163b29d459560e01b81526001600160a01b038216600482015260240161097b565b600060208181527fada5013122d395ba3c54772283fb069b10426056ef8ca54750cb9bb552a59e7d80546001600160a01b0385811680865260408087208054939094166001600160a01b03199384161790935560019095528254168417909155519182527fecdf3a3effea5783a3c4c2140e677577666428d44ed9d474a0b3a4c9943f8440910160405180910390a150565b600060026031540361131757604051637465d9d160e01b815260040160405180910390fd5b600260315560005a6001600090815260336020527f10f6f77027d502f219862b0303542eb5dd005b06fa23ff4d1775aaa45bbf9477805492935090918291611371918991899190856113688361363d565b919050556110de565b80516020820120925090506113868286611d23565b506113b5603f60068860800151901b61139f9190613656565b60808801516113b0906109c4613678565b61247e565b6113c1906101f4613678565b5a1015611420575a6113f2603f60068960800151901b6113e19190613656565b60808901516113b0906109c4613678565b6113fe906101f4613678565b604051633b4daac960e01b81526004810192909252602482015260440161097b565b6114608660000151876040015188606001518960200151896020015160001461144d578a60800151612355565b6109c45a61145b919061368b565b612355565b92508215801561147257506080860151155b801561148057506020850151155b156114b95760808601516020860151604051631061f87f60e31b815260048101929092526024820152831515604482015260640161097b565b60008560200151600014611521576114f05a6114d5908561368b565b8751602089015160408a015160608b015160808c0151612494565b905080827f3fd74c38c9f1b6f0499c6d0128fbf77a796dbacc7eda0369b13006dc977bb56b60405160405180910390a35b50506001603155509392505050565b6110a0868686868686610930565b61092a848484846108e1565b60008360000361159c5760405162461bcd60e51b815260206004820152601b60248201527f696e76616c696420746f6b656e4761735072696365466163746f720000000000604482015260640161097b565b60005a905060006001600160a01b038416156115b857836115ba565b325b90506001600160a01b03851661162b5760003a88106115d9573a6115db565b875b6115e58a8c613678565b6115ef919061369e565b9050600080600080600085875af1905080611624576000838360405163190eecf360e31b815260040161097b939291906136b5565b505061167f565b600086886116398b8d613678565b611643919061369e565b61164d9190613656565b905061165a868383612599565b61167d5785828260405163190eecf360e31b815260040161097b939291906136b5565b505b5a820392508260405160200161169791815260200190565b60408051601f198184030181529082905262461bcd60e51b825261097b916004016131a6565b6032546001600160a01b031633146116ea5760405163d4ed9a1760e01b815233600482015260240161097b565b6001600160a01b038216611711576040516309293b1960e41b815260040160405180910390fd5b600080600080600085875af1905080611744576000838360405163190eecf360e31b815260040161097b939291906136b5565b505050565b6000806040518060a001604052808f6001600160a01b031681526020018b60018111156117785761177861352b565b81526020018e81526020018d8d8080601f01602080910402602001604051908101604052809392919081815260200183838082843760009201919091525050509082525060209081018b90526040805160a0810182528b81529182018a905281018890526001600160a01b038088166060830152861660808201529091506118018282866110de565b80519060200120925050509c9b505050505050505050505050565b6032546001600160a01b031633146118495760405163d4ed9a1760e01b815233600482015260240161097b565b6001600160a01b038216611870576040516309293b1960e41b815260040160405180910390fd5b61187b838383612599565b6117445782828260405163190eecf360e31b815260040161097b939291906136b5565b604051631aab3f0d60e11b8152306004820152600060248201819052906001600160a01b037f000000000000000000000000000000000000000000000000000000000000000016906335567e1a906044015b602060405180830381865afa15801561190d573d6000803e3d6000fd5b505050506040513d601f19601f8201168201806040525081019061193191906136d9565b905090565b6040516370a0823160e01b81523060048201526000906001600160a01b037f000000000000000000000000000000000000000000000000000000000000000016906370a08231906024016118f0565b6000805a90506119ce878787878080601f01602080910402602001604051908101604052809392919081815260200183838082843760009201919091525089925050505a612355565b6119eb57604051632b3f6d1160e21b815260040160405180910390fd5b5a60408051918303602083015201611697565b60606000826001600160401b03811115611a1a57611a1a612dfe565b604051908082528060200260200182016040528015611a43578160200160208202803683370190505b506001600160a01b0380861660009081526020819052604081205492945091165b6001600160a01b03811615801590611a8657506001600160a01b038116600114155b8015611a9157508482105b15611ae85780848381518110611aa957611aa9613499565b6001600160a01b039283166020918202929092018101919091529181166000908152918290526040909120541681611ae08161363d565b925050611a64565b908352919491935090915050565b611afe61245c565b6001600160a01b0381161580611b1d57506001600160a01b0381166001145b15611b465760405163cadb248f60e01b81526001600160a01b038216600482015260240161097b565b6001600160a01b03828116600090815260208190526040902054811690821614611bae576001600160a01b0382811660008181526020819052604090819020549051633103525b60e21b8152848416600482015292166024830152604482015260640161097b565b6001600160a01b03818116600081815260208181526040808320805488871685528285208054919097166001600160a01b03199182161790965592849052825490941690915591519081527faab4fa2b463f581b2b32cb3b7e3b704b9ce37cc209b5fb4d77e593ace4054276910160405180910390a15050565b6032546001600160a01b03163314611c555760405163d4ed9a1760e01b815233600482015260240161097b565b6001600160a01b038116611c7c57604051633d9d06fb60e11b815260040160405180910390fd5b306001600160a01b03821603611ca557604051631e238de360e21b815260040160405180910390fd5b6001600160a01b038116600090815260346020526040902054600103611cde57604051631ec9fb4160e21b815260040160405180910390fd5b6001600160a01b03811660008181526034602052604080822060019055517f47d1c22a25bb3a5d4e481b9b1e6944c2eade3181a0a20b495ed61d35b5323f249190a250565b604181511015611d755760405162461bcd60e51b815260206004820152601960248201527f496e76616c6964207369676e617475726573206c656e67746800000000000000604482015260640161097b565b600080600080611d98856020810151604082015160419092015160ff1692909190565b9195509350915060ff8416600003611edd5750816041821015611ddf576040516338a245ff60e11b815260048101839052600060248201819052604482015260640161097b565b6020828601810151865190918290611df8908690613678565b611e029190613678565b1115611e355785516040516338a245ff60e11b81526004810185905260248101839052604481019190915260640161097b565b604051630b135d3f60e11b808252878501602001916001600160a01b03851690631626ba7e90611e6b908c9086906004016134f5565b602060405180830381865afa158015611e88573d6000803e3d6000fd5b505050506040513d601f19601f82011682018060405250810190611eac919061350e565b6001600160e01b03191614611ed6578060405163605d348960e01b815260040161097b91906131a6565b5050611f22565b601e8460ff161115611f1257611f0a611ef76004866136f2565b8484611f028a6126d5565b929190612728565b509050611f22565b611f1e86858585612728565b5090505b611f2b816127ec565b6110a0576032546040516310b5d43760e21b81526001600160a01b038084166004830152909116602482015260440161097b565b611f6761245c565b60008051602061397283398151915254611f808261296a565b816001600160a01b0316816001600160a01b03167f06be9a1bea257286cf2afa8205ed494ca9d6a4b41aa58d04238deebada20fb0c60405160405180910390a35050565b6032546001600160a01b031615611ff0576040516393360fbf60e01b815230600482015260240161097b565b6001600160a01b03821661201757604051639b15e16f60e01b815260040160405180910390fd5b603280546001600160a01b0319166001600160a01b03841617905561203b8161296a565b6120556000604051806020016040528060008152506129a3565b5050565b604080517f47e79534a245952e8b16893a336b85a3d9ea9fa8c573f3d803afb92a794692186020820152469181019190915230606082015260009060800160405160208183030381529060405280519060200120905090565b6000610f6a8484846112f2565b336001600160a01b037f0000000000000000000000000000000000000000000000000000000000000000161480159061210357506032546001600160a01b03163314155b15612123576040516332dbd3c760e11b815233600482015260240161097b565b565b60008082516020840185875af16040513d6000823e81610feb573d81fd5b60008060006121528585612a6d565b9150915061215f81612ab2565b509392505050565b6000368161217860608601866134af565b9092509050801561227f576000612192600482848661370b565b61219b91613735565b90506361a2b3b760e01b6001600160e01b031982160161227d57600080806121c6856004818961370b565b8101906121d39190613765565b6001600160a01b038084166000908152602081905260409020549396509194509250161561227957604051631179c1f560e11b81526001600160a01b038416906322f383ea90612229908c908c90600401613821565b6020604051808303816000875af1158015612248573d6000803e3d6000fd5b505050506040513d601f19601f8201168201806040525081019061226c91906136d9565b9650505050505050610d0b565b5050505b505b600061228a856126d5565b90506122da61229d6101408801886134af565b8080601f01602080910402602001604051908101604052809392919081815260200183838082843760009201919091525085939250506121439050565b6032546001600160a01b039081169116146122fb5760019350505050610d0b565b50600095945050505050565b50565b80156123075760405133906000199083906000818181858888f193505050503d806000811461092a576040519150601f19603f3d011682016040523d82523d6000602084013e61092a565b6000600183600181111561236b5761236b61352b565b03612383576000808551602087018986f49050612393565b600080855160208701888a87f190505b80156123f857836040516123a7919061393a565b604051809103902085876001600160a01b03167f81d12fffced46c214dfae8ab8fa0b9f7b69f70c9d500e33f612f2105deb261ee86866040516123eb929190613956565b60405180910390a4612453565b83604051612406919061393a565b604051809103902085876001600160a01b03167f3ddd038f78c876172d5dbfd730b14c9f8692dfa197ef104eaac6df3f85a0874a868660405161244a929190613956565b60405180910390a45b95945050505050565b333014612123576040516301478e3360e21b815233600482015260240161097b565b600081831161248d5781610e6c565b5090919050565b6000836000036124b75760405163653f35a360e01b815260040160405180910390fd5b60006001600160a01b038316156124ce57826124d0565b325b90506001600160a01b03841661253e573a86106124ed573a6124ef565b855b6124f9888a613678565b612503919061369e565b9150600080600080600086865af1905080612538576000828460405163190eecf360e31b815260040161097b939291906136b5565b5061258e565b848661254a898b613678565b612554919061369e565b61255e9190613656565b915061256b848284612599565b61258e5783818360405163190eecf360e31b815260040161097b939291906136b5565b509695505050505050565b60006001600160a01b0384166125f15760405162461bcd60e51b815260206004820152601d60248201527f746f6b656e2063616e206e6f74206265207a65726f2061646472657373000000604482015260640161097b565b6000846001600160a01b03163b1161264b5760405162461bcd60e51b815260206004820152601c60248201527f746f6b656e20636f6e747261637420646f65736e277420657869737400000000604482015260640161097b565b604080516001600160a01b03851660248201526044808201859052825180830390910181526064909101909152602080820180516001600160e01b031663a9059cbb60e01b178152825160009182896127105a03f13d80156126b857602081146126c057600093506126cb565b8193506126cb565b600051158215171593505b5050509392505050565b6040517f19457468657265756d205369676e6564204d6573736167653a0a3332000000006020820152603c8101829052600090605c01604051602081830303815290604052805190602001209050919050565b6000807f7fffffffffffffffffffffffffffffff5d576e7357a4501ddfe92f46681b20a083111561275f57506000905060036127e3565b6040805160008082526020820180845289905260ff881692820192909252606081018690526080810185905260019060a0016020604051602081039080840390855afa1580156127b3573d6000803e3d6000fd5b5050604051601f1901519150506001600160a01b0381166127dc576000600192509250506127e3565b9150600090505b94509492505050565b60006001600160a01b0382166128445760405162461bcd60e51b815260206004820152601d60248201527f7369676e65722063616e6e6f74206265207a65726f2061646472657373000000604482015260640161097b565b306001600160a01b038316036128a65760405162461bcd60e51b815260206004820152602160248201527f7369676e65722063616e6e6f7420626520636f6e7472616374206164647265736044820152607360f81b606482015260840161097b565b6032546001600160a01b03908116908316036128fd5760405162461bcd60e51b815260206004820152601660248201527539b4b3b732b91031b0b73737ba1031329037bbb732b960511b604482015260640161097b565b6001600160a01b0382166000908152603460205260409020546001036129655760405162461bcd60e51b815260206004820152601760248201527f7369676e65722063616e6e6f7420626520617574686564000000000000000000604482015260640161097b565b919050565b6001600160a01b0381166129915760405163dd449f5f60e01b815260040160405180910390fd5b60008051602061397283398151915255565b600160009081526020527fada5013122d395ba3c54772283fb069b10426056ef8ca54750cb9bb552a59e7d546001600160a01b0316156129f65760405163df8cc4e360e01b815260040160405180910390fd5b600160008181526020527fada5013122d395ba3c54772283fb069b10426056ef8ca54750cb9bb552a59e7d80546001600160a01b03191690911790556001600160a01b0382161561205557612a508260008360015a612355565b6120555760405163032e3a3960e51b815260040160405180910390fd5b6000808251604103612aa35760208301516040840151606085015160001a612a9787828585612728565b94509450505050612aab565b506000905060025b9250929050565b6000816004811115612ac657612ac661352b565b03612ace5750565b6001816004811115612ae257612ae261352b565b03612b2f5760405162461bcd60e51b815260206004820152601860248201527f45434453413a20696e76616c6964207369676e61747572650000000000000000604482015260640161097b565b6002816004811115612b4357612b4361352b565b03612b905760405162461bcd60e51b815260206004820152601f60248201527f45434453413a20696e76616c6964207369676e6174757265206c656e67746800604482015260640161097b565b6003816004811115612ba457612ba461352b565b036123075760405162461bcd60e51b815260206004820152602260248201527f45434453413a20696e76616c6964207369676e6174757265202773272076616c604482015261756560f01b606482015260840161097b565b6001600160a01b038116811461230757600080fd5b803561296581612bfc565b60008083601f840112612c2e57600080fd5b5081356001600160401b03811115612c4557600080fd5b602083019150836020828501011115612aab57600080fd5b60008060008060608587031215612c7357600080fd5b8435612c7e81612bfc565b93506020850135925060408501356001600160401b03811115612ca057600080fd5b612cac87828801612c1c565b95989497509550505050565b60008083601f840112612cca57600080fd5b5081356001600160401b03811115612ce157600080fd5b6020830191508360208260051b8501011115612aab57600080fd5b60008060008060008060608789031215612d1557600080fd5b86356001600160401b0380821115612d2c57600080fd5b612d388a838b01612cb8565b90985096506020890135915080821115612d5157600080fd5b612d5d8a838b01612cb8565b90965094506040890135915080821115612d7657600080fd5b50612d8389828a01612cb8565b979a9699509497509295939492505050565b6001600160e01b03198116811461230757600080fd5b600060208284031215612dbd57600080fd5b8135610e6c81612d95565b600060208284031215612dda57600080fd5b8135610e6c81612bfc565b600060208284031215612df757600080fd5b5035919050565b634e487b7160e01b600052604160045260246000fd5b60405160a081016001600160401b0381118282101715612e3657612e36612dfe565b60405290565b600082601f830112612e4d57600080fd5b81356001600160401b0380821115612e6757612e67612dfe565b604051601f8301601f19908116603f01168101908282118183101715612e8f57612e8f612dfe565b81604052838152866020858801011115612ea857600080fd5b836020870160208301376000602085830101528094505050505092915050565b60008060408385031215612edb57600080fd5b8235915060208301356001600160401b03811115612ef857600080fd5b612f0485828601612e3c565b9150509250929050565b600080600060608486031215612f2357600080fd5b83356001600160401b03811115612f3957600080fd5b84016101608187031215612f4c57600080fd5b95602085013595506040909401359392505050565b80356002811061296557600080fd5b60008060008060808587031215612f8657600080fd5b8435612f9181612bfc565b93506020850135925060408501356001600160401b03811115612fb357600080fd5b612fbf87828801612e3c565b925050612fce60608601612f61565b905092959194509250565b60008060408385031215612fec57600080fd5b8235612ff781612bfc565b946020939093013593505050565b60005b83811015613020578181015183820152602001613008565b50506000910152565b60008151808452613041816020860160208601613005565b601f01601f19169290920160200192915050565b8215158152604060208201526000610f6a6040830184613029565b600060a0828403121561308257600080fd5b61308a612e14565b9050813561309781612bfc565b81526130a560208301612f61565b60208201526040820135604082015260608201356001600160401b038111156130cd57600080fd5b6130d984828501612e3c565b6060830152506080820135608082015292915050565b600060a0828403121561310157600080fd5b613109612e14565b9050813581526020820135602082015260408201356040820152606082013561313181612bfc565b6060820152608082013561314481612bfc565b608082015292915050565b600080600060e0848603121561316457600080fd5b83356001600160401b0381111561317a57600080fd5b61318686828701613070565b93505061319685602086016130ef565b915060c084013590509250925092565b602081526000610e6c6020830184613029565b600080600060e084860312156131ce57600080fd5b83356001600160401b03808211156131e557600080fd5b6131f187838801613070565b945061320087602088016130ef565b935060c086013591508082111561321657600080fd5b5061322386828701612e3c565b9150509250925092565b60008060008060008060c0878903121561324657600080fd5b86359550602087013594506040870135935060608701359250608087013561326d81612bfc565b915060a087013561327d81612bfc565b809150509295509295509295565b6000806000806000806000806000806000806101608d8f0312156132ae57600080fd5b6132b88d35612bfc565b8c359b5060208d01359a506001600160401b0360408e013511156132db57600080fd5b6132eb8e60408f01358f01612c1c565b909a5098506132fc60608e01612f61565b975060808d0135965060a08d0135955060c08d0135945060e08d013593506101008d013561332981612bfc565b92506133386101208e01612c11565b91506101408d013590509295989b509295989b509295989b565b60008060006060848603121561336757600080fd5b833561337281612bfc565b9250602084013561338281612bfc565b929592945050506040919091013590565b6000806000806000608086880312156133ab57600080fd5b85356133b681612bfc565b94506020860135935060408601356001600160401b038111156133d857600080fd5b6133e488828901612c1c565b90945092506133f7905060608701612f61565b90509295509295909350565b604080825283519082018190526000906020906060840190828701845b828110156134455781516001600160a01b031684529284019290840190600101613420565b5050506001600160a01b039490941692019190915250919050565b6000806040838503121561347357600080fd5b823561347e81612bfc565b9150602083013561348e81612bfc565b809150509250929050565b634e487b7160e01b600052603260045260246000fd5b6000808335601e198436030181126134c657600080fd5b8301803591506001600160401b038211156134e057600080fd5b602001915036819003821315612aab57600080fd5b828152604060208201526000610f6a6040830184613029565b60006020828403121561352057600080fd5b8151610e6c81612d95565b634e487b7160e01b600052602160045260246000fd5b6002811061355f57634e487b7160e01b600052602160045260246000fd5b9052565b6001600160a01b038681168252851660208201526040810184905260a06060820181905260009061359690830185613029565b90506135a56080830184613541565b9695505050505050565b8c81526001600160a01b038c81166020830152604082018c9052606082018b90526101808201906135e3608084018c613541565b8960a08401528860c08401528760e08401528661010084015280861661012084015280851661014084015250826101608301529d9c50505050505050505050505050565b634e487b7160e01b600052601160045260246000fd5b60006001820161364f5761364f613627565b5060010190565b60008261367357634e487b7160e01b600052601260045260246000fd5b500490565b80820180821115610d0b57610d0b613627565b81810381811115610d0b57610d0b613627565b8082028115828204841417610d0b57610d0b613627565b6001600160a01b039384168152919092166020820152604081019190915260600190565b6000602082840312156136eb57600080fd5b5051919050565b60ff8281168282160390811115610d0b57610d0b613627565b6000808585111561371b57600080fd5b8386111561372857600080fd5b5050820193919092039150565b6001600160e01b0319813581811691600485101561375d5780818660040360031b1b83161692505b505092915050565b60008060006060848603121561377a57600080fd5b833561378581612bfc565b92506020840135915060408401356001600160401b038111156137a757600080fd5b61322386828701612e3c565b6000808335601e198436030181126137ca57600080fd5b83016020810192503590506001600160401b038111156137e957600080fd5b803603821315612aab57600080fd5b81835281816020850137506000828201602090810191909152601f909101601f19169091010190565b604081526138426040820161383585612c11565b6001600160a01b03169052565b60208301356060820152600061385b60408501856137b3565b6101608060808601526138736101a0860183856137f8565b925061388260608801886137b3565b9250603f19808786030160a088015261389c8585846137f8565b9450608089013560c088015260a089013560e0880152610100935060c089013584880152610120915060e089013582880152610140848a0135818901526138e5838b018b6137b3565b955092508188870301848901526138fd8686856137f8565b955061390b818b018b6137b3565b9550935050808786030161018088015250506139288383836137f8565b93505050508260208301529392505050565b6000825161394c818460208701613005565b9190910192915050565b604081016139648285613541565b826020830152939250505056fe6c9a6c4a39284e37ed1cf53d337577d14212a4870fb976a4366c693b939918d4a26469706673582212204f3ffd6463f32ff5172c0734b476e4c4831d5a4bc97417ce6f699698556285ea64736f6c63430008110033",
    "linkReferences": {}
  },
  "methodIdentifiers": {
    "VERSION()": "ffa1ad74",
    "addDeposit()": "4a58db19",
    "addSigners(address)": "e460a30c",
    "authedSigners(address)": "b40d83d0",
    "checkSignatures(bytes32,bytes)": "ed516d51",
    "disableModule(address,address)": "e009cfde",
    "domainSeparator()": "f698da25",
    "enableModule(address)": "610b5925",
    "encodeTransactionData((address,uint8,uint256,bytes,uint256),(uint256,uint256,uint256,address,address),uint256)": "5c0ba299",
    "entryPoint()": "b0d691fe",
    "execTransaction((address,uint8,uint256,bytes,uint256),(uint256,uint256,uint256,address,address),bytes)": "fc7d3d79",
    "execTransactionFromModule(address,uint256,bytes,uint8)": "468721a7",
    "execTransactionFromModuleReturnData(address,uint256,bytes,uint8)": "5229073f",
    "execTransaction_S6W((address,uint8,uint256,bytes,uint256),(uint256,uint256,uint256,address,address),bytes)": "7455ce3c",
    "executeBatchCall(address[],uint256[],bytes[])": "912ccaa3",
    "executeBatchCall_4by(address[],uint256[],bytes[])": "00008f2d",
    "executeCall(address,uint256,bytes)": "9e5d4c49",
    "executeCall_s1m(address,uint256,bytes)": "00000772",
    "getChainId()": "3408e470",
    "getDeposit()": "c399ec88",
    "getFallbackHandler()": "856dfd99",
    "getImplementation()": "aaf10f42",
    "getModulesPaginated(address,uint256)": "cc2f8452",
    "getNonce(uint256)": "3d46b819",
    "getTransactionHash(address,uint256,bytes,uint8,uint256,uint256,uint256,uint256,address,address,uint256)": "abc1b745",
    "handlePaymentRevert(uint256,uint256,uint256,uint256,address,address)": "a18f51e5",
    "init(address,address)": "f09a4016",
    "isModuleEnabled(address)": "2d9ad53d",
    "isValidSignature(bytes32,bytes)": "1626ba7e",
    "nonce()": "affed0e0",
    "nonces(uint256)": "141a468c",
    "owner()": "8da5cb5b",
    "pullTokens(address,address,uint256)": "ac85dca7",
    "removeSigners(address)": "325c8d58",
    "requiredTxGas(address,uint256,bytes,uint8)": "c4ca3a9c",
    "setFallbackHandler(address)": "f08a0323",
    "setOwner(address)": "13af4035",
    "supportsInterface(bytes4)": "01ffc9a7",
    "transfer(address,uint256)": "a9059cbb",
    "updateImplementation(address)": "025b22bc",
    "validateUserOp((address,uint256,bytes,bytes,uint256,uint256,uint256,uint256,uint256,bytes,bytes),bytes32,uint256)": "3a871cdd",
    "withdrawDepositTo(address,uint256)": "4d44560d"
  },
  "id": 18
}